{
  "address": "0xA9F9FB87455ea4D8a60F88F9621A7712155f945a",
  "abi": [
    {
      "inputs": [
        {
          "internalType": "address",
          "name": "priceFeed",
          "type": "address"
        }
      ],
      "stateMutability": "nonpayable",
      "type": "constructor"
    },
    {
      "inputs": [],
      "name": "FundMe__NotOwner",
      "type": "error"
    },
    {
      "inputs": [],
      "name": "MINIMUM_USD",
      "outputs": [
        {
          "internalType": "uint256",
          "name": "",
          "type": "uint256"
        }
      ],
      "stateMutability": "view",
      "type": "function"
    },
    {
      "inputs": [],
      "name": "cheaperWithdraw",
      "outputs": [],
      "stateMutability": "nonpayable",
      "type": "function"
    },
    {
      "inputs": [],
      "name": "fund",
      "outputs": [],
      "stateMutability": "payable",
      "type": "function"
    },
    {
      "inputs": [
        {
          "internalType": "address",
          "name": "fundingAddress",
          "type": "address"
        }
      ],
      "name": "getAddressToAmountFunded",
      "outputs": [
        {
          "internalType": "uint256",
          "name": "",
          "type": "uint256"
        }
      ],
      "stateMutability": "view",
      "type": "function"
    },
    {
      "inputs": [
        {
          "internalType": "uint256",
          "name": "index",
          "type": "uint256"
        }
      ],
      "name": "getFunder",
      "outputs": [
        {
          "internalType": "address",
          "name": "",
          "type": "address"
        }
      ],
      "stateMutability": "view",
      "type": "function"
    },
    {
      "inputs": [],
      "name": "getOwner",
      "outputs": [
        {
          "internalType": "address",
          "name": "",
          "type": "address"
        }
      ],
      "stateMutability": "view",
      "type": "function"
    },
    {
      "inputs": [],
      "name": "getPriceFeed",
      "outputs": [
        {
          "internalType": "contract AggregatorV3Interface",
          "name": "",
          "type": "address"
        }
      ],
      "stateMutability": "view",
      "type": "function"
    },
    {
      "inputs": [],
      "name": "getVersion",
      "outputs": [
        {
          "internalType": "uint256",
          "name": "",
          "type": "uint256"
        }
      ],
      "stateMutability": "view",
      "type": "function"
    },
    {
      "inputs": [],
      "name": "withdraw",
      "outputs": [],
      "stateMutability": "nonpayable",
      "type": "function"
    }
  ],
  "transactionHash": "0x5b4aed5d5238087888302b2e6bbd07c433841f194546652c8a4d909675ea057b",
  "args": [
    "0x694AA1769357215DE4FAC081bf1f309aDC325306"
  ],
  "numDeployments": 2,
  "solcInputHash": "f5ab29d0d18c03be1f563f9f5d21a592",
  "bytecode": "0x60a06040523480156200001157600080fd5b50604051620012623803806200126283398181016040528101906200003791906200011d565b80600260006101000a81548173ffffffffffffffffffffffffffffffffffffffff021916908373ffffffffffffffffffffffffffffffffffffffff1602179055503373ffffffffffffffffffffffffffffffffffffffff1660808173ffffffffffffffffffffffffffffffffffffffff1681525050506200014f565b600080fd5b600073ffffffffffffffffffffffffffffffffffffffff82169050919050565b6000620000e582620000b8565b9050919050565b620000f781620000d8565b81146200010357600080fd5b50565b6000815190506200011781620000ec565b92915050565b600060208284031215620001365762000135620000b3565b5b6000620001468482850162000106565b91505092915050565b6080516110db62000187600039600081816102cc0152818161045f015281816104fe01528181610682015261087801526110db6000f3fe6080604052600436106100865760003560e01c8063893d20e811610059578063893d20e8146101355780639e87a5cd14610160578063b60d42881461018b578063be2693f014610195578063d7b4750c146101ac57610086565b80630343fb251461008b5780630d8e6e2c146100c85780633ccfd60b146100f35780636b69a5921461010a575b600080fd5b34801561009757600080fd5b506100b260048036038101906100ad9190610b2c565b6101e9565b6040516100bf9190610b72565b60405180910390f35b3480156100d457600080fd5b506100dd610232565b6040516100ea9190610b72565b60405180910390f35b3480156100ff57600080fd5b506101086102ca565b005b34801561011657600080fd5b5061011f6104f4565b60405161012c9190610b72565b60405180910390f35b34801561014157600080fd5b5061014a6104fa565b6040516101579190610b9c565b60405180910390f35b34801561016c57600080fd5b50610175610522565b6040516101829190610c16565b60405180910390f35b61019361054c565b005b3480156101a157600080fd5b506101aa610680565b005b3480156101b857600080fd5b506101d360048036038101906101ce9190610c5d565b61090e565b6040516101e09190610b9c565b60405180910390f35b6000600160008373ffffffffffffffffffffffffffffffffffffffff1673ffffffffffffffffffffffffffffffffffffffff168152602001908152602001600020549050919050565b6000600260009054906101000a900473ffffffffffffffffffffffffffffffffffffffff1673ffffffffffffffffffffffffffffffffffffffff166354fd4d506040518163ffffffff1660e01b8152600401602060405180830381865afa1580156102a1573d6000803e3d6000fd5b505050506040513d601f19601f820116820180604052508101906102c59190610c9f565b905090565b7f000000000000000000000000000000000000000000000000000000000000000073ffffffffffffffffffffffffffffffffffffffff163373ffffffffffffffffffffffffffffffffffffffff161461034f576040517f579610db00000000000000000000000000000000000000000000000000000000815260040160405180910390fd5b60005b6000805490508110156103fa57600080828154811061037457610373610ccc565b5b9060005260206000200160009054906101000a900473ffffffffffffffffffffffffffffffffffffffff1690506000600160008373ffffffffffffffffffffffffffffffffffffffff1673ffffffffffffffffffffffffffffffffffffffff168152602001908152602001600020819055505080806103f290610d2a565b915050610352565b50600067ffffffffffffffff81111561041657610415610d72565b5b6040519080825280602002602001820160405280156104445781602001602082028036833780820191505090505b506000908051906020019061045a929190610a22565b5060007f000000000000000000000000000000000000000000000000000000000000000073ffffffffffffffffffffffffffffffffffffffff16476040516104a190610dd2565b60006040518083038185875af1925050503d80600081146104de576040519150601f19603f3d011682016040523d82523d6000602084013e6104e3565b606091505b50509050806104f157600080fd5b50565b6101f481565b60007f0000000000000000000000000000000000000000000000000000000000000000905090565b6000600260009054906101000a900473ffffffffffffffffffffffffffffffffffffffff16905090565b6101f4610584600260009054906101000a900473ffffffffffffffffffffffffffffffffffffffff163461095590919063ffffffff16565b10156105c5576040517f08c379a00000000000000000000000000000000000000000000000000000000081526004016105bc90610e44565b60405180910390fd5b34600160003373ffffffffffffffffffffffffffffffffffffffff1673ffffffffffffffffffffffffffffffffffffffff16815260200190815260200160002060008282546106149190610e64565b925050819055506000339080600181540180825580915050600190039060005260206000200160009091909190916101000a81548173ffffffffffffffffffffffffffffffffffffffff021916908373ffffffffffffffffffffffffffffffffffffffff160217905550565b7f000000000000000000000000000000000000000000000000000000000000000073ffffffffffffffffffffffffffffffffffffffff163373ffffffffffffffffffffffffffffffffffffffff1614610705576040517f579610db00000000000000000000000000000000000000000000000000000000815260040160405180910390fd5b60008080548060200260200160405190810160405280929190818152602001828054801561078857602002820191906000526020600020905b8160009054906101000a900473ffffffffffffffffffffffffffffffffffffffff1673ffffffffffffffffffffffffffffffffffffffff168152602001906001019080831161073e575b5050505050905060005b81518110156108135760008282815181106107b0576107af610ccc565b5b602002602001015190506000600160008373ffffffffffffffffffffffffffffffffffffffff1673ffffffffffffffffffffffffffffffffffffffff1681526020019081526020016000208190555050808061080b90610d2a565b915050610792565b50600067ffffffffffffffff81111561082f5761082e610d72565b5b60405190808252806020026020018201604052801561085d5781602001602082028036833780820191505090505b5060009080519060200190610873929190610a22565b5060007f000000000000000000000000000000000000000000000000000000000000000073ffffffffffffffffffffffffffffffffffffffff16476040516108ba90610dd2565b60006040518083038185875af1925050503d80600081146108f7576040519150601f19603f3d011682016040523d82523d6000602084013e6108fc565b606091505b505090508061090a57600080fd5b5050565b600080828154811061092357610922610ccc565b5b9060005260206000200160009054906101000a900473ffffffffffffffffffffffffffffffffffffffff169050919050565b60008061096183610991565b90506000670de0b6b3a7640000858361097a9190610e98565b6109849190610f09565b9050809250505092915050565b6000808273ffffffffffffffffffffffffffffffffffffffff1663feaf968c6040518163ffffffff1660e01b815260040160a060405180830381865afa1580156109df573d6000803e3d6000fd5b505050506040513d601f19601f82011682018060405250810190610a039190610fb2565b5050509150506402540be40081610a1a919061102d565b915050919050565b828054828255906000526020600020908101928215610a9b579160200282015b82811115610a9a5782518260006101000a81548173ffffffffffffffffffffffffffffffffffffffff021916908373ffffffffffffffffffffffffffffffffffffffff16021790555091602001919060010190610a42565b5b509050610aa89190610aac565b5090565b5b80821115610ac5576000816000905550600101610aad565b5090565b600080fd5b600073ffffffffffffffffffffffffffffffffffffffff82169050919050565b6000610af982610ace565b9050919050565b610b0981610aee565b8114610b1457600080fd5b50565b600081359050610b2681610b00565b92915050565b600060208284031215610b4257610b41610ac9565b5b6000610b5084828501610b17565b91505092915050565b6000819050919050565b610b6c81610b59565b82525050565b6000602082019050610b876000830184610b63565b92915050565b610b9681610aee565b82525050565b6000602082019050610bb16000830184610b8d565b92915050565b6000819050919050565b6000610bdc610bd7610bd284610ace565b610bb7565b610ace565b9050919050565b6000610bee82610bc1565b9050919050565b6000610c0082610be3565b9050919050565b610c1081610bf5565b82525050565b6000602082019050610c2b6000830184610c07565b92915050565b610c3a81610b59565b8114610c4557600080fd5b50565b600081359050610c5781610c31565b92915050565b600060208284031215610c7357610c72610ac9565b5b6000610c8184828501610c48565b91505092915050565b600081519050610c9981610c31565b92915050565b600060208284031215610cb557610cb4610ac9565b5b6000610cc384828501610c8a565b91505092915050565b7f4e487b7100000000000000000000000000000000000000000000000000000000600052603260045260246000fd5b7f4e487b7100000000000000000000000000000000000000000000000000000000600052601160045260246000fd5b6000610d3582610b59565b91507fffffffffffffffffffffffffffffffffffffffffffffffffffffffffffffffff8203610d6757610d66610cfb565b5b600182019050919050565b7f4e487b7100000000000000000000000000000000000000000000000000000000600052604160045260246000fd5b600081905092915050565b50565b6000610dbc600083610da1565b9150610dc782610dac565b600082019050919050565b6000610ddd82610daf565b9150819050919050565b600082825260208201905092915050565b7f596f75206e65656420746f207370656e64206d6f726520455448210000000000600082015250565b6000610e2e601b83610de7565b9150610e3982610df8565b602082019050919050565b60006020820190508181036000830152610e5d81610e21565b9050919050565b6000610e6f82610b59565b9150610e7a83610b59565b9250828201905080821115610e9257610e91610cfb565b5b92915050565b6000610ea382610b59565b9150610eae83610b59565b9250828202610ebc81610b59565b91508282048414831517610ed357610ed2610cfb565b5b5092915050565b7f4e487b7100000000000000000000000000000000000000000000000000000000600052601260045260246000fd5b6000610f1482610b59565b9150610f1f83610b59565b925082610f2f57610f2e610eda565b5b828204905092915050565b600069ffffffffffffffffffff82169050919050565b610f5981610f3a565b8114610f6457600080fd5b50565b600081519050610f7681610f50565b92915050565b6000819050919050565b610f8f81610f7c565b8114610f9a57600080fd5b50565b600081519050610fac81610f86565b92915050565b600080600080600060a08688031215610fce57610fcd610ac9565b5b6000610fdc88828901610f67565b9550506020610fed88828901610f9d565b9450506040610ffe88828901610c8a565b935050606061100f88828901610c8a565b925050608061102088828901610f67565b9150509295509295909350565b600061103882610f7c565b915061104383610f7c565b925082820261105181610f7c565b91507f8000000000000000000000000000000000000000000000000000000000000000841460008412161561108957611088610cfb565b5b828205841483151761109e5761109d610cfb565b5b509291505056fea26469706673582212204835199307c35ab0b60d775f018cdfc95c61309fe7458a4e28661d6b41e8277264736f6c63430008120033",
  "devdoc": {
    "author": "Patrick Collins",
    "details": "This implements price feeds as our library",
    "kind": "dev",
    "methods": {
      "getAddressToAmountFunded(address)": {
        "params": {
          "fundingAddress": "the address of the funder"
        },
        "returns": {
          "_0": "the amount funded"
        }
      }
    },
    "title": "A sample Funding Contract",
    "version": 1
  },
  "userdoc": {
    "kind": "user",
    "methods": {
      "fund()": {
        "notice": "Funds our contract based on the ETH/USD price"
      },
      "getAddressToAmountFunded(address)": {
        "notice": "Gets the amount that an address has funded"
      }
    },
    "notice": "This contract is for creating a sample funding contract",
    "version": 1
  },
  "storageLayout": {
    "storage": [
      {
        "astId": 67,
        "contract": "contracts/FundMe.sol:FundMe",
        "label": "s_funders",
        "offset": 0,
        "slot": "0",
        "type": "t_array(t_address)dyn_storage"
      },
      {
        "astId": 71,
        "contract": "contracts/FundMe.sol:FundMe",
        "label": "s_addressToAmountFunded",
        "offset": 0,
        "slot": "1",
        "type": "t_mapping(t_address,t_uint256)"
      },
      {
        "astId": 74,
        "contract": "contracts/FundMe.sol:FundMe",
        "label": "s_priceFeed",
        "offset": 0,
        "slot": "2",
        "type": "t_contract(AggregatorV3Interface)45"
      }
    ],
    "types": {
      "t_address": {
        "encoding": "inplace",
        "label": "address",
        "numberOfBytes": "20"
      },
      "t_array(t_address)dyn_storage": {
        "base": "t_address",
        "encoding": "dynamic_array",
        "label": "address[]",
        "numberOfBytes": "32"
      },
      "t_contract(AggregatorV3Interface)45": {
        "encoding": "inplace",
        "label": "contract AggregatorV3Interface",
        "numberOfBytes": "20"
      },
      "t_mapping(t_address,t_uint256)": {
        "encoding": "mapping",
        "key": "t_address",
        "label": "mapping(address => uint256)",
        "numberOfBytes": "32",
        "value": "t_uint256"
      },
      "t_uint256": {
        "encoding": "inplace",
        "label": "uint256",
        "numberOfBytes": "32"
      }
    }
  }
}